:020000040000FA
:020000000628D0
:040002000034003492
:0800080020000900F030210086
:10001000990020003F002008200009180532C83050
:1000200000000000090BFC3323008C018D0124002B
:10003000FF308C008D002100951322008C010D10E3
:10004000210020308C00DE308D002700940120003C
:1000500022001E149D17230048309F0023001E120B
:100060001E15230044309B0000309C002300230019
:100070009E1623009D1723001D16210091122000BB
:10008000F9309B004F309C00F401210091102800B2
:100090007D309D007F309E0020003F002008200022
:1000A00009180C320730F300F2018901000000004A
:1000B000090BFC33F20BFA33F30BF8332000AC01DD
:1000C000AD01AE01AF01F501F401AA01AB01B4012C
:1000D000B501B8010130B6000A30B700A030840085
:1000E000003085000C30F0000030803F823F833FBD
:1000F0008030813F0431F00BF73353307524623088
:10010000752475307524733075240D3075240A30CC
:100110007524210091019201930194012700960119
:10012000200093112000A601A701C0308B006400BD
:1001300021000E3097002000200026082B02031D0E
:100140000132A60A20002000911C02329110F40A0C
:100150006400200032307402031C0432F401AB0A44
:100160002E307524743509357407AA0074360936A3
:100170000936AA072A08F00021000D080910F01B13
:1001800009148D0020001222BB24200000308700BB
:1001900039308600380886070318870A0A30D924C0
:1001A000B807283038020318102112222000931DAE
:1001B0001132931128001C08203C031C0030200041
:1001C000A100A001A136A00CA136A00CC1211923C9
:1001D0001222EB20B1332000A030860000308700CF
:1001E0000C30F100F001423FA000433FA100891B09
:1001F000F003403FA007413FA13D0030F03D7008B3
:1002000003190632A001A101891FA003891FA103C0
:100210002008C03F2108C13F4431F10BE3330800FF
:100220003930840000308500003F533A031D3032DE
:10023000013F003A031D2C32023F0C3A031D2832C5
:1002400001309D24FF30A9000408860005088700BE
:100250002730F000160029061822A900F00BFA3307
:10026000403F2906031D14326F3075246B3075240E
:100270000D3075240A30752401309D24A03086008D
:1002800000308700462401309D242830722101343B
:1002900062307524613075246430752420307524F3
:1002A00039308600003087002830F10016007524B0
:1002B000F10BFC330D3075240A307524393084007D
:1002C000003085003808F000F101F003F10A120057
:1002D0001200533A03190332F10AF00BF933710893
:1002E000722100342000F00070080319080038085B
:1002F000700238080318133239308400003085004A
:100300007008040786000030053D87007008B802B9
:100310003808F00016001A00F00BFC33080020002B
:10032000B8010800F1000732F10009360936093634
:1003300009369E21752471089E21752C0F390B00FA
:100340003034313432343334343435343634373471
:1003500038343934413442344334443445344634F7
:10036000A030860000308700303075247830752446
:10037000413F9421403F94210D3075240A3075246B
:100380000800C03020052104031D453220083F3AF3
:100390000B00000000000000000000000000000052
:1003A000000000000000000000000000000000004D
:1003B000000000000000000000000000000000003D
:1003C000000000000000000000000000000000002D
:1003D000000000000000000000000000000000001D
:1003E000000000000000000000000000000000000D
:1003F00000000000000000340134023403340434EF
:10040000053406340734083409340A340B340C3408
:100410000D347F347F3400309D242430A00200301E
:10042000A13BAF33852401309D24091C0232080012
:100430000B000034C2347134B334E23420349334CA
:1004400051343134F33440348234D3341134A2344F
:1004500060346234A0341334D13480344234F13403
:100460003334533491342234E034B1347334C034EF
:100470000234C4340634B53477342634E434573483
:100480009534F5343734843446341734D5346634EF
:10049000A434A6346434D734153444348634353423
:1004A000F73497345534E63424347534B73404348F
:1004B000C6347D34BF340C34CE349F345D34EE34D6
:1004C0002C344C348E343D34FF34AE346C34DF3451
:1004D0001D341F34DD346E34AC34FD343F348C3481
:1004E0004E342E34EC345F349D34CC340E34BD3471
:1004F0007F34B9347B34C8340A345B3499342A34B9
:10050000E83488344A34F9343B346A34A8341B3430
:10051000D934DB341934AA3468343934FB344834E0
:100520008A34EA3428349B3459340834CA34793450
:10053000BB34FA3438348B3449341834DA346934FF
:10054000AB34CB340934BA3478342934EB345834EE
:100550009A3498345A34E9342B347A34B8340B341E
:10056000C934A9346B34D8341A344B3489343A340E
:10057000F8343E34FC344F348D34DC341E34AD3426
:100580006F340F34CD347E34BC34ED342F349C348E
:100590005E345C349E342D34EF34BE347C34CF343E
:1005A0000D346D34AF341C34DE348F344D34FE34AE
:1005B0003C3487344534F63434346534A734143449
:1005C000D634B6347434C7340534543496342534B0
:1005D000E734E5342734943456340734C53476345C
:1005E000B434D4341634A53467343634F434473450
:1005F0008534433481343234F034A1346334D0341C
:1006000012347234B0340334C13490345234E1348F
:1006100023342134E33450349234C3340134B234BB
:1006200070341034D2346134A334F234303483342F
:10063000413401309D24A03084000030850090308A
:10064000860020308700013F0908031D03320000A7
:1006500000000000A201003FA000013FA100A5236F
:1006600022081E0020081E0021081E000431A20AD4
:100670000A302202031CEF3301309D2490308600A3
:1006800020308700A201A301443FF000453FF10064
:10069000413F7002423F713B03180F32433FF2006B
:1006A000403FC33F413FC43F423FC53F7208C03F48
:1006B0007008C13F7108C23FA30A4331A20A093042
:1006C0002202031CE13301309D242308031DD6338D
:1006D00001309D249030860020308700A201403FE9
:1006E000BC2300309D241130A000A101C121433161
:1006F000A20A0A302202031CF2338830A0001C3008
:10070000A100C1219030860020308700A201003076
:10071000F0000030F100413FA000423FA10070080E
:10072000A0027108A13B413FF000423FF1001C30A4
:10073000A0070030A13DC121403F01244331A20A5E
:100740000A302202031CE7330800A136A00CA136B0
:10075000A00C2035F000210DF1002008F007210841
:10076000F13DF201A136A00CF20C7008F202710802
:10077000A03B0030A13B080022000F3909350935A4
:100780000B000C172000080000008C172000080048
:1007900000000C142000080000008C142000080049
:1007A00000000C152000080000008C152000080037
:1007B00000000C162000080000008D142000080026
:1007C00000008D152000080000000D162000080014
:1007D00000000D172000080000008D172000080001
:1007E00000008C162000080000008C162000080075
:1007F00000008C162000080000008C162000080065
:10080000000022000F39093509350B000C132000B8
:10081000080000008C132000080000000C102000CD
:10082000080000008C102000080000000C112000BF
:10083000080000008C112000080000000C122000AD
:10084000080000008D102000080000008D1120001D
:10085000080000000D122000080000000D13200009
:10086000080000008D132000080000008C122000FA
:10087000080000008C122000080000008C122000EC
:10088000080000008C122000080000002000393011
:10089000840000308500023F03190034F1000C3061
:1008A00071020C300318F1000331013FF000003FEA
:1008B0000935F00D0935F00D0935F00D0935F00D4C
:1008C0001E0070081E00013FF0391E00023F1E008E
:1008D0000331F10BEA33013420002E080800200018
:1008E0002D082C02031CC03E08002000F00021301F
:1008F000850080302C0784000318850A70081A00D0
:10090000AC0AC0302C020318AC012000111E0034C8
:100910002D082C02031900342130850080302D076A
:1009200084000318850A2300003F9A002000AD0AC6
:10093000C0302D020318AD0101342000911E113288
:1009400020308500C0302E0784000318850A23005C
:100950001908803F2000AE0AC0302E020318AE01F5
:1009600001340908031D00340430890BFE330034C0
:100970002E082F06080023009D18023220000800D0
:100980001D1220002E08AF0023001D1620000800B5
:10099000200020308500C0302F0784000318850A0E
:1009A0001200F000AF0AC0302F020318AF01700828
:1009B00008002000F10020308500C0302F0784009F
:1009C0000318850A2F082E02031802322F08C03C94
:1009D000F000710870027108031C7008F000F1004B
:1009E0000319043212001E00F10BFC337008AF072C
:0C09F000C0302F020318AF007008080090
:020000040001F9
:02000E009C2F25
:02001000FF1BD4
:00000001FF
